:1003CB003830353120B14BBD58C2EAB1D2B0CA2E4C
:1003DB002E2E0D0A00454E54455200636F72726506
:1003EB006374210077726F6E67005345540D0D00D7
:1003FB0070617373776F72645F736574757000737C
:10040B00657475705F66696E697368003F065B4F54
:10041B00666D7D077F6F777C395E7971FEFDFBF72B
:04042B00EFDFBF7FC1
:1004D800043B01020304012F00C102012E00012187
:0104E8000013
:1001E400C2001204FA1204EA7BFF7A0379CB0203F9
:1001F40012E52FB405FB2431F8E4F6F52F78317CB1
:0E02040000FD7BFF7A0379E01201C7EF706600
:10021200D201F508300113743B2508F8E6FF742279
:100222002508F8E6B50703D38001C392010508E566
:1002320008B404E0E4F50874262508F8E4F6050895
:10024200E508B408F230011475263F752773752846
:10025200797529547BFF7A0379E6800F75267975C3
:1002620027507528507BFF7A0379EF1204B3D2002E
:03027200E4F52E82
:100275000201F578317C007D007BFF7A0379F51268
:1002850001C7EF701CD202F52EF50874262508F873
:10029500E4F60508E508B408F27BFF7A0379FB80EC
:0A02A5006CE532640D60030201F500
:1002AF00E53124D0F509E52E7013300010F50874F0
:1002BF00262508F8E4F60508E508B408F2300249E7
:1002CF00743B252EF8A609E50990041793FFC37414
:1002DF0007952E2426F8A607052EE52E6404600345
:1002EF000201F5C202F52E7FF412000EE4F5087438
:1002FF00262508F8E4F60508E508B408F27BFF7A2E
:10030F0004790A1204B30201F57422252EF8A60906
:10031F00E50990041793FF742A252EF8A607052EDA
:0D032F00E52EC3940450030201F5E4F52E01
:03033C000201F5C6
:10048800E4F580D2A2C2A2E5212F90042793F5803B
:10049800D2A3C2A374262521F8E6F580D2A2C2A26F
:0A04A8000521E521B50503E4F52167
:0104B2002227
:03050400DFFE22F5
:10000E00AE07AF061EEF600C7FF51205047FF512EA
:05001E00050480EE2244
:0A04FA00438901D2AFD2A9D28C22AF
:03000B0002042FBD
:10042F00C0E0C083C082C0D075D000C000C005C07E
:10043F0007758CF8758A307D08E4FF120488D007A1
:0D044F00D005D000D0D0D082D083D0E032D4
:1004EA00759850438920758DFDD28ED2ACD2AF2239
:080003008F993099FDC299228A
:1004B3008B0A8A0B890CAB0AAA0BA90C12002660C3
:1004C30013050CE50C7002050B14F9120026FF123C
:0504D300000380E2229D
:0300230002045C78
:0B045C00C0E0C0D075D000C000C00799
:10046700309815C298AF997431252FF8A607052F34
:08047700E52FB40A03752F0004
:09047F00D007D000D0D0D0E0324B
:0300000002033FB9
:0C033F00787FE4F6D8FD75813E0203864D
:10002600BB010689828A83E0225002E722BBFE02D8
:09003600E32289828A83E493220B
:10003F00E3F5F009E208B5F06D606B80F3E3F5F0DE
:10004F0009E608B5F060605E80F387F009E608B551
:10005F00F054605280F487F009E208B5F04860462A
:10006F0080F488828C8387F009E0A3B5F03860367E
:10007F0080F488828C8387F009E493A3B5F027601E
:10008F002580F388828C83E3F5F009E0A3B5F016A1
:10009F00601480F388828C83E3F5F009E493A3B5B1
:1000AF00F004600280F202016A808580E7808E8012
:1000BF00D2803C8015806C807E809B80B5808B8049
:1000CF00A1804F8070803A02018089828A83ECFA86
:1000DF00E493F5F0A3C8C582C8CCC583CCE493A341
:1000EF00C8C582C8CCC583CCB5F070606E80E1897D
:1000FF00828A83E493F5F0A3E208B5F05E605C803A
:10010F00F289828A83E0F5F0A3E608B5F04D604BE3
:10011F0080F389828A83E0F5F0A3E208B5F03C60B2
:10012F003A80F389828A83E493F5F0A3E608B5F069
:10013F002A602880F2805D89828A83ECFAE493F545
:10014F00F0A3C8C582C8CCC583CCE0A3C8C582C8FC
:10015F00CCC583CCB5F004600280E27F00F845F097
:10016F00600EE863F0806480D395F01F40027F013A
:10017F002289828A83ECFAE0F5F0A3C8C582C8CC45
:10018F00C583CCE0A3C8C582C8CCC583CCB5F0CBA2
:10019F0060C980E389828A83ECFAE0F5F0A3C8C5D1
:1001AF0082C8CCC583CCE493A3C8C582C8CCC58311
:1001BF00CCB5F0A760A580E288F0ED2402B404006E
:1001CF005099F582EB2402B40400508F232345820B
:0501DF00239000B8733D
:10034B000201E4E493A3F8E493A34003F68001F2E3
:10035B0008DFF48029E493A3F85407240CC8C333B3
:10036B00C4540F4420C8834004F456800146F6DF82
:10037B00E4800B01020408102040809004D8E47E36
:10038B00019360BCA3FF543F30E509541FFEE49377
:10039B00A360010ECF54C025E060A840B8E493A33E
:1003AB00FAE493A3F8E493A3C8C582C8CAC583CA69
:1003BB00F0A3C8C582C8CAC583CADFE9DEE780BE21
:0104E9000012
:00000001FF
