:1003CD003830353120B14BBD58C2EAB1D2B0CA2E4A
:1003DD002E2E0D0A00454E544552007365747570EE
:1003ED005F66696E69736800636F7272656374210D
:1003FD000077726F6E67005345540D0D0070617379
:10040D0073776F72645F7365747570003F065B4F31
:10041D00666D7D077F6F777C395E7971FEFDFBF729
:04042D00EFDFBF7FBF
:1004DA00043B01020304012F00C102012E00012185
:0104EA000011
:1001E400C2001204FC1204EC7BFF7A0379CD0202F4
:1001F400C6E52FB405FB2431F8E4F6F52F78317CFD
:1002040000FD7BFF7A0379E21201C7EF600302026B
:100214009A30021BF50874262508F8E4F60508E56B
:0F02240008B408F2C2027BFF7A0379E80202C62F
:10023300D201E4F508300113743B2508F8E6FF7496
:10024300222508F8E6B50703D38001C39201050808
:10025300E508B404E0E4F50874262508F8E4F60597
:1002630008E508B408F230011475263F7527737545
:1002730028797529547BFF7A0379F5800F752679E0
:100283007527507528507BFF7A0379FE1204B5D287
:0402930000E4F52E60
:100297000201F578317C007D007BFF7A0479041236
:1002A70001C7EF7020D202F52EF50874262508F84D
:1002B700E4F60508E508B408F27BFF7A04790A1228
:0E02C70004B50201F5E532640D60030201F595
:1002D500E53124D0F509E52E7013300010F50874CA
:1002E500262508F8E4F60508E508B408F2300225E5
:1002F500743B252EF8A609E50990041993FF742A85
:10030500252EF8A607052EE52E640460030201F5E7
:10031500F52E0201F57422252EF8A609E5099004AB
:100325001993FF742A252EF8A607052EE52EC394EA
:090335000450030201F5E4F52E69
:03033E000201F5C4
:10048A00E4F580D2A2C2A2E5212F90042993F58037
:10049A00D2A3C2A374262521F8E6F580D2A2C2A26D
:0A04AA000521E521B50503E4F52165
:0104B4002225
:03050600DFFE22F3
:10000E00AE07AF061EEF600C7FF51205067FF512E8
:05001E00050680EE2242
:0A04FC00438901D2AFD2A9D28C22AD
:03000B00020431BB
:10043100C0E0C083C082C0D075D000C000C005C07C
:1004410007758CFC758A187D08E4FF12048AD007B1
:0D045100D005D000D0D0D082D083D0E032D2
:1004EC00759850438920758DFDD28ED2ACD2AF2237
:080003008F993099FDC299228A
:1004B5008B0A8A0B890CAB0AAA0BA90C12002660C1
:1004C50013050CE50C7002050B14F9120026FF123A
:0504D500000380E2229B
:0300230002045E76
:0B045E00C0E0C0D075D000C000C00797
:10046900309815C298AF997431252FF8A607052F32
:08047900E52FB40A03752F0002
:09048100D007D000D0D0D0E03249
:03000000020341B7
:0C034100787FE4F6D8FD75813E02038849
:10002600BB010689828A83E0225002E722BBFE02D8
:09003600E32289828A83E493220B
:10003F00E3F5F009E208B5F06D606B80F3E3F5F0DE
:10004F0009E608B5F060605E80F387F009E608B551
:10005F00F054605280F487F009E208B5F04860462A
:10006F0080F488828C8387F009E0A3B5F03860367E
:10007F0080F488828C8387F009E493A3B5F027601E
:10008F002580F388828C83E3F5F009E0A3B5F016A1
:10009F00601480F388828C83E3F5F009E493A3B5B1
:1000AF00F004600280F202016A808580E7808E8012
:1000BF00D2803C8015806C807E809B80B5808B8049
:1000CF00A1804F8070803A02018089828A83ECFA86
:1000DF00E493F5F0A3C8C582C8CCC583CCE493A341
:1000EF00C8C582C8CCC583CCB5F070606E80E1897D
:1000FF00828A83E493F5F0A3E208B5F05E605C803A
:10010F00F289828A83E0F5F0A3E608B5F04D604BE3
:10011F0080F389828A83E0F5F0A3E208B5F03C60B2
:10012F003A80F389828A83E493F5F0A3E608B5F069
:10013F002A602880F2805D89828A83ECFAE493F545
:10014F00F0A3C8C582C8CCC583CCE0A3C8C582C8FC
:10015F00CCC583CCB5F004600280E27F00F845F097
:10016F00600EE863F0806480D395F01F40027F013A
:10017F002289828A83ECFAE0F5F0A3C8C582C8CC45
:10018F00C583CCE0A3C8C582C8CCC583CCB5F0CBA2
:10019F0060C980E389828A83ECFAE0F5F0A3C8C5D1
:1001AF0082C8CCC583CCE493A3C8C582C8CCC58311
:1001BF00CCB5F0A760A580E288F0ED2402B404006E
:1001CF005099F582EB2402B40400508F232345820B
:0501DF00239000B8733D
:10034D000201E4E493A3F8E493A34003F68001F2E1
:10035D0008DFF48029E493A3F85407240CC8C333B1
:10036D00C4540F4420C8834004F456800146F6DF80
:10037D00E4800B01020408102040809004DAE47E32
:10038D00019360BCA3FF543F30E509541FFEE49375
:10039D00A360010ECF54C025E060A840B8E493A33C
:1003AD00FAE493A3F8E493A3C8C582C8CAC583CA67
:1003BD00F0A3C8C582C8CAC583CADFE9DEE780BE1F
:0104EB000010
:00000001FF
