:100380003830353120B14BBD58C2EAB1D2B0CA2E97
:100390002E2E0D0A00454E54455200636F72726551
:1003A0006374210077726F6E67005345540D0D0022
:1003B00070617373776F72645F73657475700073C7
:1003C000657475705F66696E697368003F065B4FA0
:1003D000666D7D077F6F777C395E7971FEFDFBF777
:0403E000EFDFBF7F0D
:10048D00043B01020304012F00C100012E000121D4
:01049D00005E
:1001E4001204AF12049F7BFF7A0379800202C4E5F4
:1001F4002FB405FB2431F8E4F6F52F78317C00FDAB
:0C0204007BFF7A0379951201C7EF705759
:10021000D201FF300111743B2FF8E6FE74222FF853
:10022000E6B50603D38001C392010FBF04E57F0842
:100230007826E4F608DFFC7F0830011475263F7548
:1002400027737528797529547BFF7A03799B800F72
:100250007526797527507528507BFF7A0379A4128B
:050260000468E4F52E26
:10026500808C78317C007D007BFF7A0379AA1201AE
:10027500C7EF700CD200F52E7BFF7A0379B0803F73
:09028500E532640D60030201F38F
:10028E00E53124D0F508300033743B252EF8A6084E
:10029E00E5089003CC93FFC37407952E2426F8A689
:1002AE0007052EE52E640460030201F3C200F52E4D
:1002BE007BFF7A0379BF1204680201F37422252EA4
:1002CE00F8A608E5089003CC93FFC37407952E2477
:1002DE0026F8A607052EE52EC3940450030201F35B
:0302EE00E4F52E06
:0302F1000201F314
:10043D00E4F580D2A2C2A2E5212F9003DC93F580D2
:10044D00D2A3C2A374262521F8E6F580D2A2C2A2BA
:0A045D000521E521B50503E4F521B2
:010467002272
:0304B900DFFE2241
:10000E00AE07AF061EEF600C7FF51204B97FF51236
:05001E0004B980EE2290
:0A04AF00438901D2AFD2A9D28C22FA
:03000B000203E409
:1003E400C0E0C083C082C0D075D000C000C005C0CA
:1003F40007758CF8758A307D08E4FF12043DD00738
:0D040400D005D000D0D0D082D083D0E0321F
:10049F00759850438920758DFDD28ED2ACD2AF2284
:080003008F993099FDC299228A
:100468008B098A0A890BAB09AA0AA90B1200266014
:1004780013050BE50B7002050A14F9120026FF128A
:05048800000380E222E8
:03002300020411C3
:0B041100C0E0C0D075D000C000C007E4
:10041C00309815C298AF997431252FF8A607052F7F
:08042C00E52FB40A03752F004F
:09043400D007D000D0D0D0E03296
:030000000202F405
:0C02F400787FE4F6D8FD75813E02033BE4
:10002600BB010689828A83E0225002E722BBFE02D8
:09003600E32289828A83E493220B
:10003F00E3F5F009E208B5F06D606B80F3E3F5F0DE
:10004F0009E608B5F060605E80F387F009E608B551
:10005F00F054605280F487F009E208B5F04860462A
:10006F0080F488828C8387F009E0A3B5F03860367E
:10007F0080F488828C8387F009E493A3B5F027601E
:10008F002580F388828C83E3F5F009E0A3B5F016A1
:10009F00601480F388828C83E3F5F009E493A3B5B1
:1000AF00F004600280F202016A808580E7808E8012
:1000BF00D2803C8015806C807E809B80B5808B8049
:1000CF00A1804F8070803A02018089828A83ECFA86
:1000DF00E493F5F0A3C8C582C8CCC583CCE493A341
:1000EF00C8C582C8CCC583CCB5F070606E80E1897D
:1000FF00828A83E493F5F0A3E208B5F05E605C803A
:10010F00F289828A83E0F5F0A3E608B5F04D604BE3
:10011F0080F389828A83E0F5F0A3E208B5F03C60B2
:10012F003A80F389828A83E493F5F0A3E608B5F069
:10013F002A602880F2805D89828A83ECFAE493F545
:10014F00F0A3C8C582C8CCC583CCE0A3C8C582C8FC
:10015F00CCC583CCB5F004600280E27F00F845F097
:10016F00600EE863F0806480D395F01F40027F013A
:10017F002289828A83ECFAE0F5F0A3C8C582C8CC45
:10018F00C583CCE0A3C8C582C8CCC583CCB5F0CBA2
:10019F0060C980E389828A83ECFAE0F5F0A3C8C5D1
:1001AF0082C8CCC583CCE493A3C8C582C8CCC58311
:1001BF00CCB5F0A760A580E288F0ED2402B404006E
:1001CF005099F582EB2402B40400508F232345820B
:0501DF00239000B8733D
:100300000201E4E493A3F8E493A34003F68001F22E
:1003100008DFF48029E493A3F85407240CC8C333FE
:10032000C4540F4420C8834004F456800146F6DFCD
:10033000E4800B010204081020408090048DE47ECC
:10034000019360BCA3FF543F30E509541FFEE493C2
:10035000A360010ECF54C025E060A840B8E493A389
:10036000FAE493A3F8E493A3C8C582C8CAC583CAB4
:10037000F0A3C8C582C8CAC583CADFE9DEE780BE6C
:01049E00005D
:00000001FF
